:020000040000FA
:10000000E00A0010E1000000E9000000EB00000041
:10001000ED000000EF000000F10000000000000013
:10002000000000000000000000000000F3000000DD
:10003000F5000000000000006B010000DD12000070
:10004000FB000000FB000000FB000000FB000000C4
:10005000FB000000FB000000FB000000FB000000B4
:10006000FB000000FB000000FB000000FB000000A4
:10007000FB000000FB000000FB000000FB00000094
:10008000FB000000FB000000FB000000FB00000084
:10009000FB000000FB000000FB000000FB00000074
:1000A000FB000000FB000000FB000000FB00000064
:1000B000FB000000FB000000FB000000FB00000054
:1000C000FB000000FB000000FB000000DFF80CD08C
:1000D00000F018F80048004709140000E00A00107A
:1000E0000648804706480047FEE7FEE7FEE7FEE7D2
:1000F000FEE7FEE7FEE7FEE7FEE7FEE7011300008E
:10010000CD000000064C074D06E0E06840F001031A
:1001100094E8070098471034AC42F6D3FFF7DAFFB3
:100120000C1500003C150000EFF3108072B670470C
:1001300080F3108870471D484FF0FF0101700020C8
:1001400080F309881A48012101701A484FF0805144
:10015000016062B6FEE717484FF0805101607047BA
:1001600014484FF080510160704772B6EFF3098078
:1001700028B1203880E8F00F0F49096808600F485F
:100180000F490A7802700C480E490A68026010682C
:1001900090E8F00F203080F309884EF0040E62B62C
:1001A00070474FF0010080F31088704722ED00E0A7
:1001B0000B00001004ED00E0240000100800001007
:1001C000090000102C000010FF2000F073BA7047E7
:1001D00070477047704770477047704770B50500AB
:1001E0000E46144605D036B10E48807828B112204C
:1001F0000DE004200BE00C2009E02878012808D04D
:10020000022806D0032804D0042802D00120107050
:1002100070BDFFF789FF6E61FFF78AFF0020207035
:1002200070BD00000400001030B587B000F070F819
:100230002A48002404638470C4700472C471C460CA
:10024000C4618461446144708471214600F13402C8
:100250005454491CC9B20829FAD304714471846208
:10026000046200F095FE00F067FE00F02FFE00F043
:10027000D1FE00F0F5FE02AA0325202031C2184964
:100280004FF6FF70CDE9000101F17C023F23002110
:10029000144800F0BBF905AA13A13F2000F0B6FAFC
:1002A00002AA402031C214494FF6FE70CDE9000188
:1002B00001F1FC023E230021104800F0A7F905AA35
:1002C0000FA13E2000F0A2FA00F050FC00F026F84A
:1002D00007B0BDE83040FFF780BF00000400001009
:1002E000E0C207200112000075432F4F532D4949EA
:1002F0002049646C65000000E0C107203512000051
:1003000075432F4F532D49492053746174000000E9
:10031000014900200880704700000010704700006D
:1003200070B5144CE079012822D1FFF7FDFE054697
:10033000A07820B1401E10F0FF00A07013D1E0782B
:1003400088B900F0D1FE0C48617950F82100A06214
:100350002279914207D0C16B491CC163E068401CFF
:10036000E060FFF7FDFE2846BDE87040FFF7E0BE05
:1003700070BD00000400001060C3072010B5094CD8
:10038000E07901280CD1FFF7CFFEA17821B9E178FF
:10039000FF2901D2491CE170BDE81040FFF7C8BE3B
:1003A00010BD00000400001010B50D4CE0790128CC
:1003B00014D1FFF7B9FEE17831B1491E11F0FF0108
:1003C000E17001D1A17819B1BDE81040FFF7B0BECE
:1003D000FFF7AEFEBDE8104000F062BE10BD0000A9
:1003E0000400001070B505460E48007808B10020E2
:1003F00070BDFFF799FE01460B4804680CB16268B6
:1004000002600846FFF794FE4CB10320207025815E
:100410000020606005A06061204600F04DFD204690
:1004200070BD000006000010140000103F00000026
:100430002DE9F04706008946144604D03078032899
:1004400003D001200AE0042008E02648007808B123
:10045000022003E02448007818B10D201070BDE898
:10046000F087FFF761FE07463089002530B1401E56
:1004700030813846FFF75CFE2570F0E7DFF86C80CE
:10048000D8F8000010F8341F41F0010101704570E8
:1004900040F8049C304600F0E5FC3846FFF748FE83
:1004A00000F0FEFDFFF740FE0746D8F8000090F888
:1004B000351031B1022906D0314600F0A9FC0A20DE
:1004C00002E0257001E00E202070D8F8000000F155
:1004D0001C0005764576056045603846BDE8F04766
:1004E000FFF726BE060000100700001024000010D1
:1004F00070B5040004D02078032803D0012070BD1B
:10050000042070BDFFF710FE0546A07A58B1002305
:1005100001221946204600F03FFC2846FFF708FE5E
:1005200000F0BEFD09E020894FF6FF71884206D237
:10053000401C20812846FFF7FBFD002070BD2846A7
:10054000FFF7F6FD332070BD10B5094CE0790028A7
:100550000CD100F0C9FD60790649207151F82000E6
:10056000A0622062BDE81040FFF7E5BD10BD0000AD
:100570000400001060C30720FFF729BE2DE9FE43E9
:1005800005460F4690461C463F2B02D92A20BDE85F
:10059000FE83FFF7C9FD1A49097819B1FFF7C8FDB5
:1005A0003C20F4E7174E56F8241019B1FFF7C0FDB0
:1005B0002820ECE7012146F82410FFF7B9FD0023BD
:1005C00042463946284600F09FF90025014600952D
:1005D00001952B462A462046029500F095FD07001E
:1005E00007D0FFF7A1FD46F82450FFF7A1FD3846DC
:1005F000CDE7054800780128F9D100F051FDF6E774
:100600000600001060C307200B0000102DE9FF4F0B
:1006100083B08246DDE91386DDE911978B461C46DF
:100620003F2B03D92A2007B0BDE8F08FFFF77CFDF0
:100630001C49097819B1FFF77BFD3C20F3E71A4DFF
:1006400055F8241019B1FFF773FD2820EBE70121BD
:1006500045F82410FFF76CFD32463946484600F055
:1006600031FE334659465046059A00F04DF9009741
:10067000CDE9018601464A462046109B00F044FD24
:10068000060008D0FFF750FD002145F82410FFF7C1
:100690004FFD3046C7E7054800780128F9D100F042
:1006A000FFFCF6E70600001060C307200B000010F7
:1006B000FFF78EBD2DE9F04706464748007810B198
:1006C0004020BDE8F0873F2E04D005D3FF2E07D091
:1006D0002A20F6E73E20F4E7FFF726FD074606E06E
:1006E000FFF722FD07463D48006890F83660DFF8C6
:1006F000F09059F826406CB1012C10D094F83810C5
:10070000384A94F83930505CDB43DBB2184050541F
:100710000AD010E03846FFF70BFD4320D1E73846FA
:10072000FFF706FD3D20CCE72F4994F83A000A7800
:1007300022EA00000870E16911B1204600F068FB70
:10074000216A11B1204600F075FBA06A08B100F0E3
:10075000E3FB4FF00008C4F83080244D84F8348067
:1007600084F835802878FF2801D2401C287038464C
:10077000FFF7DEFC00F00EFBFFF7D6FC07462878FB
:1007800008B1401E2870204600F03CF81848017857
:10079000491E017049F82680A169404691B16069FF
:1007A0004861D4E905018161124801686161046012
:1007B00011A020653846FFF7BBFC104800780128DF
:1007C00006D007E0616988610D4960690860EBE760
:1007D00000F066FC002074E7060000102400001002
:1007E00060C30720380000100A0000100700001046
:1007F0000C000010280000103F0000000B0000104B
:1008000030000010FFF7E5BCFFF7E4BC70B505460B
:100810000E4614463F2803D9FF2D01D02A2004E0BC
:100820002EB11248007820B11220107070BD0C203B
:10083000FBE7FFF779FC0146FF2D03D10C48006868
:1008400090F836500B4850F82500432540B1012858
:1008500006D006650846FFF76BFC0020207070BDCF
:100860000846FFF765FC257070BD0000060000100B
:100870002400001060C307207047FFF7ACBC0000E5
:100880002DE9F04105460C463F2804D9FF2D02D042
:100890002A20BDE8F08144B1002020606060FFF7AD
:1008A00043FC0146FF2D02D005E00920F1E7144882
:1008B000006890F83650134850F8250058B10128C8
:1008C00009D0028AD2070BD0D0E90276002508466B
:1008D000FFF72EFC0AE00846FFF72AFC4320D8E782
:1008E0000846FFF725FC4520D3E76D1C01CF002803
:1008F000FBD0A8002060701B800060600020C8E76B
:100900002400001060C307204FF080731360131F92
:100910001860164842F8080CA2F138004FF0123364
:100920004FF00332C0E90A234FF0023242624FF027
:100930000132C0E907124FF0113181614FF01031DF
:1009400041614FF0093101614FF00831C1604FF052
:10095000073181604FF0063141604FF0053140F8BA
:1009600004194FF004310160704700001D120000AF
:1009700070B5274D04463F2804D005D3FF280CD07E
:100980002A2070BD472070BDFFF7CEFB03462868C4
:1009900090F83600A04206D007E0FFF7C5FB0346FB
:1009A000286890F83640012500E00025194850F8E5
:1009B000240068B1012810D090F83820164C90F827
:1009C0003960A15CF643F6B23140A1540AD010E080
:1009D0001846FFF7ADFB482070BD1846FFF7A8FB8F
:1009E000432070BD0D4A90F83A10147824EA0101B2
:1009F000117010F8341F41F0080101701846FFF71C
:100A000097FB012D01D100F04BFB002070BD0000D1
:100A10002400001060C30720380000100A000010F6
:100A200070B5044614480078002824D11348007893
:100A3000002820D1002C1ED0FFF776FB034610487B
:100A4000104D016891F8380091F839602A5CF6433E
:100A5000F6B232402A5406D10B4A91F83A00157882
:100A600025EA0000107018460C63FFF761FBBDE833
:100A7000704000F015BB70BD0600001007000010AC
:100A800024000010380000100A0000102DE9F04189
:100A900000F052F8FFF748FB264D296B491C2963EB
:100AA000FFF746FBE879012841D1687A0126002743
:100AB00020B101283BD0022802D06F72EC6A32E0EC
:100AC0006E72FBE7FFF730FB216B49B3491E2163D0
:100AD00026D194F8341011F0370F06D001F0C80178
:100AE00084F8341084F8356001E084F8357094F8A7
:100AF0003410090714D404F13804AA79A178DFF876
:100B000034C041EA0201A97121780CF1340C6378F8
:100B10001CF80120A4F1380442EA03020CF8012079
:100B20006469FFF705FB94F836003F28CAD1BDE899
:100B3000F08100000400001010B5FFF74DFB0748DE
:100B40000188491C89B20180642905D300210180F4
:100B5000BDE8104000F004B810BD00000000001017
:100B600001480068FFF7C4BC5800001070B588B099
:100B70004FF420712E4800F043FA40212D4800F038
:100B80003FFA00202A4904466422431C00EB8000FF
:100B90001D4601EBC0009BB203EB8303027001EB27
:100BA000C30380F82540C36023A30362A8B20F28C3
:100BB000EBD300EB800001EBC000027080F8254011
:100BC0001DA2C46002621D481E4A04601C480480C5
:100BD000102010801C4801600120FFF703FC1B4D12
:100BE00028600020FFF7FEFB194E05AA19A130600E
:100BF0002868FFF7F3FA05AA1BA13068FFF7EEFAA1
:100C0000402102910320CDE903401C4A4FF6FD70BC
:100C1000CDE900023D23FC3200211948FFF7F6FC24
:100C200006AA18A13D20FFF7F1FD08B070BD000035
:100C300020050010A00800103F0000005000001028
:100C40004E0000104C0000105C000010540000101A
:100C50005800001075432F4F532D494920546D7291
:100C60004C6F636B0000000075432F4F532D4949B3
:100C700020546D725369676E616C0000A00700100C
:100C8000DD0C000075432F4F532D494920546D72E0
:100C900000000000032280F825200E4A0129126876
:100CA00013D0816989B1114441610B4A01F00701F8
:100CB00002EBC10100230A68086042B1C260106102
:100CC0008A88521C8A8003617047C169EBE7012260
:100CD000C360F7E750000010A008001008B5DFF867
:100CE0006880DFF868901A4D6A460021D8F8000045
:100CF000FFF79EFBFFF742FB2868401C286000F0CE
:100D00000700022759F8304013E061692868E66857
:100D100081420DD1204600F01DF894F824000228ED
:100D20000CD084F82570626812B12046A168904703
:100D30003446002CE9D1FFF737FBD5E701212046E7
:100D4000FFF7A8FFEFE7000058000010A008001010
:100D50005000001010B541690D4A01F0070102EB87
:100D6000C10200231468C168844203D1116029B113
:100D70000B6103E00469E16001B10C61012180F8BD
:100D80002510C36003619088401E908010BD000054
:100D9000A008001070470000F0B50546807A194C95
:100DA0004FF00007205C05EB0006F67AA45D04EB2B
:100DB000C004E6B2144C54F8264004F12404E76061
:100DC0002160217C21EA020121746374A4F12404CE
:100DD00009070BD40D4994F83A208B791A438A718C
:100DE000343194F839300A5C1A430A5429462046B3
:100DF00000F00EF8216A19B1204600F01BF8E561F9
:100E00003046F0BD0C14000060C307200400001041
:100E100010B590F8382090F839408B18E443DA7A0E
:100E2000E4B22240DA7204D18A7A90F83A0082431E
:100E30008A7210BD70B510F8383F44788278E44368
:100E4000D243E4B2D5B2086809E0C618F27A22406B
:100E5000F27202D1827A2A40827251F8040F00287D
:100E6000F3D170BD30B5134900F10B020B6A43F8A2
:100E70001C0F1C7F5B7FA55C1D43A5540A6A837A07
:100E800002F13802947843EA04038372137801F183
:100E900034045578E05C6FEA0505EDB22840A2F114
:100EA0003802E05405D192F83A008A7922EA00002B
:100EB000887130BD04000010002282721146431870
:100EC000491CC9B2DA720829F9D3704710B550210C
:100ED0000E4800F095F800200C4A0146431C1C46C1
:100EE00002EB00109BB202EB03130170436008A3F6
:100EF000C360A0B20428F1D302EB0010017041607E
:100F000003A1C1600348026010BD0000F803001097
:100F10003F00000040000010D0E9001200232AB179
:100F2000116001B14A60806883627047C26800291D
:100F30005160F8D04B60F6E710B54FF4F0711148EE
:100F400000F05EF800200F4A0146431C1C4600EBEF
:100F500040009BB202EBC00003EB430302EBC30370
:100F60000170436008A34361A0B21328EDD300EBE6
:100F7000400002EBC0000170416003A141610348E1
:100F8000026110BD00C007203F00000004000010F7
:100F900010B54FF4F261164800F032F84FF480714A
:100FA000144800F02DF812490020421C00EB4004C8
:100FB00004EBC000D3B203EB430401EBC00004EB2D
:100FC000C30301EBC30343610BA30365D0B2152830
:100FD000EBD300EB400202EBC00001EBC00006A324
:100FE0000022036542610548C262416210BD0000F3
:100FF00060C4072060C307203F0000000400001009
:10100000002203E0491E00F8012B89B20029F9D122
:101010007047000010B578210E48FFF7F1FF0D4A28
:10102000002000BF00EB400102EBC10101F11803F9
:101030004B60401C08A380B24B610428F2D300EB44
:10104000400002EBC0000021416003A14161034860
:10105000026010BD480400103F0000004400001072
:1010600010B560210C48FFF7CBFF0B4A0020411C54
:101070008BB200EB400003EB430302EBC30342F8E7
:10108000303088B20328F2D300EB4000002142F850
:1010900030100248026010BDC0040010480000106B
:1010A00070B5FFF741F80E4C0546A07898B9E07886
:1010B00088B900F019F80B49607951F82010A16245
:1010C0002279904207D0C86B401CC863E068401C7E
:1010D000E060FFF740F82846BDE87040FFF728B809
:1010E0000400001060C307200649054A01F13403DB
:1010F0008879105C1B5CD25C02EBC00048717047C1
:101100000C140000040000102DE9F05F0746DDE933
:101110000ABA0D4690469946FFF706F8354E746AAE
:10112000002C63D061691C347162FFF701F844F848
:101130001C5CA776002525766576656144F810BCB1
:1011400044E906A80C9824F80C0CFB0824F80A9C27
:10115000E57707F007020120237700FA03F1E27632
:10116000A1779040607725606560E560A5602562A5
:10117000A562656220A0E562C4E90C50A4F11C04DC
:101180004FEA050004EB800100F101004D6510F00D
:10119000FF00F7D02046FFF7EFF92046FFF788FA67
:1011A000FEF7C2FF0146154840F82740F06AC4E93F
:1011B000050500B18461F46204F13804B279A078C5
:1011C00040EA0200B0710B48227800F134006478E4
:1011D000835C43EA04038354307A00F101003072E7
:1011E0000846FEF7A5FF0020BDE8F09FFEF7A0FF30
:1011F0004220F9E7040000103F00000060C3072010
:10120000054C00BFFEF790FFE169491CE161FEF764
:101210008FFFFFF7F9FAF5E704000010044810B556
:101220000068FFF729FBBDE81040FF20FFF742BA36
:1012300024000010144C02E0C820FFF7F1FB607896
:101240000028F9D0642160690025B0FBF1F06061ED
:1012500018B92570FF20FFF78BFBFEF765FFE169EA
:10126000C4E90615FEF764FFD4E90510B0FBF1F000
:10127000C0F164002070FFF700FB00F007F8642065
:10128000FFF7CEFBE9E70000040000107CB50C4D31
:10129000002469462046FFF7F3FA58B955F82400B0
:1012A00040B1012806D0D0E9021201EB820181642D
:1012B0000199C164641CE4B23F2CEAD97CBD0000F2
:1012C00060C30720D30707D0920705D50022002965
:1012D00002D004C0491EFAE77047000010B5FEF7BF
:1012E00023FF064A1178491C1170FEF721FFFFF712
:1012F000CDFBBDE81040FFF713B80000060000105A
:1013000070B52D482021C0F8A011D0F8A011890691
:1013100004D500BFD0F8A0114906FBD500F180002C
:101320000323C0F884304FF00005C0F82851C0F8FE
:101330002C514FF00104C0F88C40204941604FF01F
:10134000AA01C1604FF05502C2600460C160C26072
:10135000A0F18000D0F888607601FBD540F8803F8E
:10136000C160C260A0F18000D0F8886016F0407FB4
:10137000FAD000F1A00023264660C160C26004607C
:10138000C160C260A0F1A000D0F8A8406405FBD500
:1013900040F8A03FC160C260A0F1A000D0F8A81042
:1013A00011F4407FFAD00649C0F8C410C0F8C85103
:1013B00043F23A01016070BD00C00F4063000500B8
:1013C000DE87280402E008C8121F08C1002AFAD1EB
:1013D00070477047002001E001C1121F002AFBD1B5
:1013E0007047000010B5FEF71FFF0523044A0021D7
:1013F0000448FFF7C3F8FFF7A7F8002010BD00006E
:10140000F4030010C9010000FFF7ECBF0000010069
:1014100002000100030001000200010004000100BD
:1014200002000100030001000200010005000100AC
:10143000020001000300010002000100040001009D
:10144000020001000300010002000100060001008B
:10145000020001000300010002000100040001007D
:10146000020001000300010002000100050001006C
:10147000020001000300010002000100040001005D
:10148000020001000300010002000100070001004A
:10149000020001000300010002000100040001003D
:1014A000020001000300010002000100050001002C
:1014B000020001000300010002000100040001001D
:1014C000020001000300010002000100060001000B
:1014D00002000100030001000200010004000100FD
:1014E00002000100030001000200010005000100EC
:1014F00002000100030001000200010004000100DD
:101500000200010003000100020001003C15000080
:101510000000001060000000C41300009C150000D3
:1015200060000010800A0000D41300009C15000029
:1015300000C00720F00B0000D413000000000000E2
:10154000000000000000000000000000000000009B
:10155000000000000000000000000000000000008B
:10156000000000000000000000000000000000007B
:10157000000000000000000000000000000000006B
:10158000000000000000000000000000000000005B
:0C1590000000000000000000000000004F
:04000005000000CD2A
:00000001FF
